:100000000C942A000C94CD070C94F6070C941F084E
:100010000C9447000C9447000C9447000C94470044
:100020000C9447000C9447000C9447000C94470034
:100030000C940C090C94AB0A0C94030B0C94DA0A84
:100040000C9447000C9447000C9447000C94470014
:100050000C94470011241FBECFE5D8E0DEBFCDBF12
:1000600010E0A0E6B0E0EAEBFDE102C005900D92E1
:10007000AC3DB107D9F721E0ACEDB0E001C01D9275
:10008000A537B207E1F70E942C0B0C94D40E0C9408
:10009000000041E065E083E00E943B0641E066E04D
:1000A00083E00E943B0640E065E083E00E94890611
:1000B00040E066E083E00C94890641E065E083E07F
:1000C0000E94890640E066E083E00E9489062FEFE7
:1000D00082E597E0215080409040E1F700C00000A9
:1000E00040E065E083E00E94890640E066E083E04E
:1000F0000C94890640E065E083E00E94890641E0B7
:1001000066E083E00E9489062FEF82E597E02150A8
:1001100080409040E1F700C0000040E065E083E0EF
:100120000E94890640E066E083E00C94890640E086
:1001300065E083E00E94890640E066E083E00C947D
:100140008906EF92FF920F931F93CF93DF93C8E737
:10015000D0E09CE7E92E90E0F92E0991F70111918A
:100160007F0140E0602F812F0E943B0641E0602F1D
:10017000812F0E948906F0E0CC37DF0771F7C0E7D6
:10018000D0E084E7E82E80E0F82E0991F701119184
:100190007F0141E0602F812F0E943B0641E0602FEC
:1001A000812F0E948906F0E0C437DF0771F7DF91E5
:1001B000CF911F910F91FF90EF9008952F923F9252
:1001C0004F925F926F927F928F929F92AF92BF9267
:1001D000CF92DF92EF92FF920F931F93CF93DF9313
:1001E0000F92CDB7DEB7198250E7852E50E0952EDD
:1001F00064E7662E60E0762EA12CB12CF4012080FD
:10020000F301308040E0622D832D0E94890638E79B
:10021000C32E30E0D32E4CE7E42E40E0F42E00E075
:1002200010E0F6015080F7014080AE014F5F5F4F54
:10023000652D842D0E94D7068981811599F19FEF44
:10024000C91AD90AEFEFEE1AFE0A0F5F1F4F0430EA
:10025000110539F7FFEF8F1A9F0A8FEF681A780A96
:1002600041E0622D832D0E9489069FEFA91AB90AE9
:10027000E4E0AE16B10411F61FEF812F0F90DF916D
:10028000CF911F910F91FF90EF90DF90CF90BF9093
:10029000AF909F908F907F906F905F904F903F9026
:1002A0002F900895C501880F991F880F991F805AB4
:1002B0009F4FFC01E00FF11F1081AE014F5F5F4FB8
:1002C000652D842D0E94D70689818115B1F38FE3B6
:1002D0009CE90197F1F700C0000041E0622D832DF9
:1002E0000E948906CACFCF93DF930F92CDB7DEB7B6
:1002F00089836130E1F120F00F90DF91CF91089573
:1003000041E080E00E94890640E061E080E00E94D8
:1003100089066981607F81E00E94C70641E062E052
:1003200080E00E9489068FEC97E00197F1F700C00A
:10033000000040E062E080E00E94890669816295E9
:10034000607F81E00E94C70641E062E080E00E9499
:1003500089068FEC97E00197F1F700C0000040E0BC
:1003600062E080E00F90DF91CF910C94890641E02C
:1003700060E080E00E94890640E061E080E00E9449
:1003800089066981DECFCF93DF930F92CDB7DEB7B9
:1003900089836130E1F120F00F90DF91CF910895D2
:1003A00040E080E00E94890640E061E080E00E9439
:1003B00089066981607F81E00E94C70641E062E0B2
:1003C00080E00E9489068FEC97E00197F1F700C06A
:1003D000000040E062E080E00E9489066981629549
:1003E000607F81E00E94C70641E062E080E00E94F9
:1003F00089068FEC97E00197F1F700C0000040E01C
:1004000062E080E00F90DF91CF910C94890640E08C
:1004100060E080E00E94890640E061E080E00E94A8
:1004200089066981DECF813009F450C008F0089553
:1004300041E060E00E943B0641E061E080E00E9414
:100440003B0641E062E080E00E943B066FEF81E006
:100450000E9479069FEB2AED80E091502040804079
:10046000E1F700C0000060E082E00E94C3018FEC71
:1004700097E00197F1F700C0000060E088E20E9479
:10048000C3018FEC97E00197F1F700C0000060E036
:100490008CE00E94C3018FEC97E00197F1F700C058
:1004A000000060E081E00E94C3018FE99FE00197B6
:1004B000F1F700C0000060E086E00E94C3018FEC0D
:1004C00097E00197F1F700C00000089541E060E077
:1004D00080E00E943B0641E061E080E00E943B0634
:1004E00041E062E080E00E943B066FEF81E00E9405
:1004F00079062FEB8AED90E0215080409040E1F7A3
:1005000000C0000061E088E30E94C3018FEC97E027
:100510000197F1F700C0000061E08EE00E94C30186
:100520008FEC97E00197F1F700C0000061E081E0F7
:100530000E94C3018FE99FE00197F1F700C000001E
:1005400061E0BACF0F931F93CF93DF9300D0CDB765
:10055000DEB78C016983009791F0FC0180818115E1
:1005600071F01A8269810E947301FA81FF5FFA8338
:10057000F8018A81E80FF11D80818111F3CF0F907E
:100580000F90DF91CF911F910F910895813058F016
:1005900031F480E4860F806860E00C94C30180E849
:1005A00060E00C94C301862F806860E00C94C30166
:1005B000FF920F931F93CF93DF93CDB7DEB72C97A6
:1005C0000FB6F894DEBF0FBECDBF4C879F938F93BD
:1005D0007F936F938BE890E09F938F938E010F5FD3
:1005E0001F4F1F930F930E94DC0B89810FB6F89465
:1005F000DEBF0FBECDBF811559F0F12C6C850E9476
:100600007301F394F801EF0DF11D80818111F6CF94
:100610002C960FB6F894DEBF0FBECDBFDF91CF9101
:100620001F910F91FF90089541E00C943B064130DB
:1006300021F0423009F0089540E00C9489064130E1
:1006400019F0423021F0089540E00C94890641E011
:100650000C948906CF93DF930F92CDB7DEB741E0BC
:1006600062E081E00E94890641E062E083E00E944E
:10067000890641E062E081E00E94890640E062E094
:1006800083E00E9489068FE097E20197F1F700C0AE
:10069000000041E062E083E00E9489069FE728E3D2
:1006A00081E0915020408040E1F700C0000040E030
:1006B00062E081E00E94890682E00E9435098FE0B5
:1006C0000E94350941E062E081E00E9489069FE7CF
:1006D00028E381E0915020408040E1F700C0000015
:1006E00040E062E081E00E94890684E50E943509CD
:1006F0008DE80E94350941E062E081E00E948906B0
:1007000040E062E081E00E94890686E50E943509AA
:100710008EE30E94350941E062E081E00E94890693
:1007200040E062E081E00E9489068AE50E94350986
:100730008EE10E94350941E062E081E00E94890675
:1007400040E062E081E00E94890688E50E94350968
:1007500080E00E94350941E062E081E00E94890664
:1007600040E062E081E00E9489068AE20E94350949
:1007700080E40E94350941E062E081E00E94890640
:1007800040E062E081E00E94890682E20E94350931
:1007900083E00E94350941E062E081E00E94890621
:1007A00040E062E081E00E94890688EA0E94350903
:1007B00080E00E943509898341E062E081E00E9487
:1007C00089068981837021F00F90DF91CF91089580
:1007D00040E062E081E00E94890688E20E943509DB
:1007E000898183600E94350941E062E081E00F90D9
:1007F000DF91CF910C948906CF93DF9300D0CDB7D2
:10080000DEB789836A8340E062E081E00E94890666
:100810008981880F8E770E9435098A810E94350967
:1008200041E062E081E00F900F90DF91CF910C9456
:100830008906CF93DF930F92CDB7DEB7898340E06F
:1008400062E081E00E9489068981880F8E77806846
:100850000E94350980E00E943509898341E062E009
:1008600081E00E94890689810F90DF91CF910895E0
:10087000CF93DF9300D000D000D00F92CDB7DEB77A
:1008800089839A8340E062E081E00E94890684E0E7
:100890000E94350981E30E94350941E062E081E070
:1008A0000E94890640E062E081E00E94890688E0BB
:1008B0000E9435098FE70E94350941E062E081E03E
:1008C0000E94890640E062E081E00E94890684E19E
:1008D0000E94350980E10E94350941E062E081E033
:1008E0000E94890640E062E081E00E94890682E081
:1008F0000E94350980E00E94350941E062E081E014
:100900000E94890640E062E081E00E94890682E15F
:100910000E94350986E20E94350941E062E081E0EB
:100920000E94890640E062E081E00E9489068AE137
:100930000E94350987E00E94350941E062E081E0CC
:100940000E94890640E062E081E00E94890682E020
:100950000E9435098CE00E94350941E062E081E0A7
:100960000E94890640E062E081E00E9489068AE1F7
:100970000E94350987E80E94350941E062E081E084
:100980000E9489061C8207C020FD2FC03C813F5F6A
:100990003C83343651F140E062E081E00E948906F8
:1009A00088E80E94350980E00E9435098B8341E088
:1009B00062E081E00E9489062B8125FFE5CF40E0BF
:1009C00062E081E00E9489068CE80E94350980E09F
:1009D0000E9435098B8341E062E081E00E94890634
:1009E0003B813B713B83311551F080E027960FB678
:1009F000F894DEBF0FBECDBFDF91CF91089540E0E8
:100A000062E081E00E94890684E10E94350980E16C
:100A10000E94350941E062E081E00E94890640E0E1
:100A200062E081E00E94890688E00E9435098FE734
:100A30000E94350941E062E081E00E94890640E0C1
:100A400062E081E00E94890682E10E94350983E923
:100A50000E94350941E062E081E00E94890640E0A1
:100A600062E081E00E94890682E10E94350980E20D
:100A70000E94350941E062E081E00E94890640E081
:100A800062E081E00E9489068AE10E94350980E0E7
:100A90000E94350941E062E081E00E94890640E061
:100AA00062E081E00E94890682E00E9435098CE0C4
:100AB0000E94350941E062E081E00E94890640E041
:100AC00062E081E00E9489068AE10E94350980E89F
:100AD0000E94350941E062E081E00E94890608C079
:100AE00080FD83CF9B819F5F9B83943609F47DCFEC
:100AF00040E062E081E00E94890688E80E943509B2
:100B000080E00E9435098C8341E062E081E00E9430
:100B100089068C8185FFE4CF40E062E081E00E949D
:100B200089068CE80E94350980E00E9435098B8394
:100B300041E062E081E00E9489062B812B7109F07F
:100B400054CF40E062E081E00E94890684E90E947F
:100B5000350980E00E9435098B8341E062E081E045
:100B60000E948906EB81E53008F43FCF29813A8164
:100B70002E833F83C90104968C839D8340E062E00D
:100B800081E00E94890682E90E94350980E00E9486
:100B900035098B8341E062E081E00E948906EE81A5
:100BA000FF812B812193EE83FF838C819D818E17A2
:100BB0009F0721F740E062E081E00E94890682E918
:100BC0000E94350980E00E9435098B8341E062E094
:100BD00081E00E948906E981FA81908181819827CC
:100BE000828198278381982781E0FB819F1380E091
:100BF000880F880FFBCE8130A1F0833051F0811136
:100C000002C03E983F9886B1887F866086B9379A41
:100C100008953E9A3F9A86B1887F866086B9379A52
:100C200008953E9A3F9886B1887F866086B9379A44
:100C30000895379A089537980895813010F43D98B3
:100C4000089509F008953D9A089597B1907E892BF3
:100C500087B90895811101C0369A089596B1987F99
:100C6000892B86B90895369A349BFECF349A84B185
:100C700025B1922F08958430C0F46830B0F441302B
:100C8000A9F098F421E001C0220F6A95EAF72095B7
:100C9000823039F1833031F0813039F18AB38223E7
:100CA0008ABB089581B3822381BB089521E001C0EE
:100CB000220F6A95EAF7823061F0833031F081309B
:100CC00061F08AB3822B8ABB089581B3822B81BBEA
:100CD000089584B3822B84BB089587B3822B87BB8E
:100CE000089584B3822384BB089587B3822387BB8E
:100CF0000895823049F020F4811541F067BB0895D2
:100D0000833031F461BB089564BB08956ABB0895D4
:100D100008958430C0F46830B0F44130A9F098F4FC
:100D200021E001C0220F6A95EAF72095823039F15F
:100D3000833031F0813039F18BB382238BBB08953E
:100D400082B3822382BB089521E001C0220F6A95FD
:100D5000EAF7823061F0833031F0813061F08BB39B
:100D6000822B8BBB089582B3822B82BB089585B3FF
:100D7000822B85BB089588B3822B88BB089585B3E9
:100D8000822385BB089588B3822388BB089582306F
:100D900049F020F4811541F068BB0895833031F4A7
:100DA00062BB089565BB08956BBB08950895411516
:100DB0005105A1F0843090F4683080F4823099F0CD
:100DC000833079F0813059F486B390E002C0959574
:100DD00087956A95E2F78170FA018083089589B357
:100DE000F4CF80B3F2CF83B3F0CF6115710571F00A
:100DF000823091F030F4811559F086B3FB01808385
:100E00000895833021F480B3FB0180830895089511
:100E100089B3FB018083089583B3FB018083089528
:100E20008230B9F058F48115E9F088B321E001C0AF
:100E3000220F6A95EAF7822788BB08958330D9F498
:100E400082B321E001C0220F6A95EAF7822782BBB4
:100E5000089585B321E001C0220F6A95EAF7822741
:100E600085BB08958BB321E001C0220F6A95EAF794
:100E700082278BBB089508958630B1F0873019F032
:100E8000853009F10895643069F1653009F443C093
:100E9000663009F447C06730A9F785B7846085BF1D
:100EA00085B7886085BF0895643019F1653099F081
:100EB000663031F1673031F785B7816085BF85B71E
:100EC000826085BF0895663011F16730D9F684B726
:100ED000806484BF089585B7816085BF85B78D7FA5
:100EE00085BF089585B78B7F85BF85B7877F85BF11
:100EF000089585B78E7F85BF85B78D7F85BF08959F
:100F000085B78E7F85BF85B7826085BF089584B71A
:100F10008F7B84BF089585B7846085BF85B7877F41
:100F200085BF089585B78B7F85BF85B7886085BFEE
:100F30000895863049F0873019F0853049F00895DA
:100F40008BB780688BBF08958BB780648BBF089583
:100F50008BB780628BBF0895863049F0873019F0D7
:100F6000853049F008958BB78F778BBF08958BB785
:100F70008F7B8BBF08958BB78F7D8BBF0895833098
:100F800058F46115710541F0E82FF0E0EE0FFF1FF6
:100F9000E452FF4F6083718308951F920F920FB642
:100FA0000F9211242F933F934F935F936F937F93EF
:100FB0008F939F93AF93BF93EF93FF93E091DC00E8
:100FC000F091DD00309709F00995FF91EF91BF9105
:100FD000AF919F918F917F916F915F914F913F91D1
:100FE0002F910F900FBE0F901F9018951F920F9288
:100FF0000FB60F9211242F933F934F935F936F93EC
:101000007F938F939F93AF93BF93EF93FF93E09161
:10101000DE00F091DF00309709F00995FF91EF9124
:10102000BF91AF919F918F917F916F915F914F9100
:101030003F912F910F900FBE0F901F9018951F9208
:101040000F920FB60F9211242F933F934F935F93FC
:101050006F937F938F939F93AF93BF93EF93FF9380
:10106000E091E000F091E100309709F00995FF91DF
:10107000EF91BF91AF919F918F917F916F915F9110
:101080004F913F912F910F900FBE0F901F90189589
:101090008FB780688FBF08958FB78F778FBF089500
:1010A0000F931F93CF93DF93CDB7DEB72B970FB678
:1010B000F894DEBF0FBECDBF902F09831A832A8715
:1010C0002B833B873C83042F4D83152F5E836F83D7
:1010D000788789876E9A913009F45CC008F440C023
:1010E0008A8581111CC06D988B8581111FC06B98FA
:1010F000013010F56A98113019F1123021F11330D6
:1011000009F473C0143009F460C0153009F460C0EC
:10111000163009F061C06998689A709A16C08A857D
:10112000813011F76D9A8B85811509F38B8581309C
:10113000F9F66B9A0130F0F2F1F66A9A1130E9F69D
:101140006998689802C06998689A2B960FB6F894C7
:10115000DEBF0FBECDBFDF91CF911F910F910895DC
:1011600040E064E081E00E94890640E065E081E0C3
:101170000E94890641E066E081E00E94890640E025
:1011800067E081E00E94890640E064E081E00E941F
:101190008906A6CF6C9A41E064E081E00E9489064E
:1011A00041E065E081E00E94890640E066E081E080
:1011B0000E94890641E067E081E00E94890641E0E3
:1011C00064E081E00E9489068BCF699A689ABDCF5E
:1011D00069986898709AB9CF173051F0183009F0B3
:1011E000B4CF699A689A709AB0CF699A6898ADCF6F
:1011F000699A6898709AA9CF6F9A08956F98089520
:101200008FB980E00895779BFECF8FB108958093CA
:10121000E2009093E30008951F920F920FB60F9291
:1012200011242F933F934F935F936F937F938F93EB
:101230009F93AF93BF93EF93FF93E091E200F09100
:10124000E300309709F00995FF91EF91BF91AF91BD
:101250009F918F917F916F915F914F913F912F91CE
:101260000F900FBE0F901F9018958FB9779BFECFF0
:101270008FB10895EF92FF920F931F93CF93DF9357
:10128000CDB7DEB72B970FB6F894DEBF0FBECDBF3C
:10129000AE2DE982FF2DFA82E02F0B83912F1C8364
:1012A0002D833E834F835887062F6987672F7A8760
:1012B000182F8B872D813E814F815885E092E60063
:1012C000F092E700E093E8009093E9002093EA00B1
:1012D0003093EB004093EC005093ED000093EE0050
:1012E0007093EF008093F00080ECA13009F080E86B
:1012F000E13009F474C0E23009F45AC0F13009F465
:101300005BC0913058F009F46FC0923009F475C099
:10131000933009F46BC0973009F468C080BD613028
:10132000E8F55998220F331F441F551F220F331F12
:10133000441F551F220F331F441F551F220F331FF9
:10134000441F551F60E072E18AE790E00E94B40BF1
:1013500021503109922F832F99B980BD5798569803
:1013600055981150173048F4E12FF0E0EA52F14F50
:101370000C94D60B569A579A559A013098F4549A71
:1013800053982B960FB6F894DEBF0FBECDBFDF91FA
:10139000CF911F910F91FF90EF90089579F080E029
:1013A00090E0DACFF1F0023061F7549A539AE9CF26
:1013B0008063F13009F0A5CF8860A3CF599A220F3E
:1013C000331F441F551F220F331F441F551F220F69
:1013D000331F441F551FB6CF579A569ACECF8062FF
:1013E0008DCF539A5498CDCF826098CF866096CF98
:1013F000579AC3CF569A559AC0CF84608FCF9C011D
:101400005D9BFECF8091E900893011F02CB90895E1
:10141000509830FFFBCF509A2CB908955F9BFECFB8
:101420008091E900893009F48AB18CB18CB190E0E7
:101430000895DC019C91911581F020E08091E900F4
:101440005D9BFECF893009F450989CB92F5FFD0158
:10145000E20FF11D90819111F3CF0895DC01892BEA
:10146000D9F05F9BFECF8091E9008930B1F09CB14B
:101470009CB19C936917B9F090E09F5F5F9BFECF92
:10148000893009F42AB12CB12CB1FD01E90FF11D0D
:1014900020836213F2CF108208959AB19CB19CB15F
:1014A0009C936913E9CFFD011082089561157105C0
:1014B00079F0FC01680F791F9091E90081915D9BA3
:1014C000FECF993009F450988CB9E617F707B1F7B9
:1014D0000895DC019091E4002091E5002917A9F01E
:1014E000E92FF0E0EE0FFF1FEB50FF4F208131811D
:1014F0002D933D939F5F903420F49093E40081E01E
:1015000008951092E40081E0089580E00895549ACF
:101510000895539A089554980895539808950895F6
:10152000579A0895569A0895559A08955798089588
:1015300056980895559808950895009721F080933E
:10154000F3009093F4000895009721F08093F10048
:101550009093F20008952F932FB72F933F938F937B
:101560009F93EF93FF938091E9008730D9F02CB1DE
:1015700030E08091E500E82FF0E08F5F803408F0E4
:1015800080E0EE0FFF1FEB50FF4F208331838093ED
:10159000E500FF91EF919F918F913F912F912FBF88
:1015A0002F9118958AB186952CB130E080FFE1CF5C
:1015B00031E0DFCF1F920F920FB60F9211242F93BD
:1015C0003F934F935F936F937F938F939F93AF93CB
:1015D000BF93EF93FF93E091F300F091F400309705
:1015E00009F00995FF91EF91BF91AF919F918F9174
:1015F0007F916F915F914F913F912F910F900FBE0F
:101600000F901F9018951F920F920FB60F921124F2
:101610002F933F934F935F936F937F938F939F93FA
:10162000AF93BF93EF93FF93E091F100F091F2003D
:10163000309709F00995FF91EF91BF91AF919F917C
:101640008F917F916F915F914F913F912F910F906B
:101650000FBE0F901F901895CDB7DEB76C970FB6E1
:10166000F894DEBF0FBECDBFFE013F9686E0DF01DE
:101670001D928A95E9F781E08C8798E09D878E8797
:1016800082E0898B8BE0E0E8F0E0DE0111960190CA
:101690000D928A95E1F70E942A030C851D852E85FF
:1016A0003F85488959896A897B898C890E945008BD
:1016B000E980FA800B811C812D813E814F81588504
:1016C00069857A858B850E943A098FE890E00E94AF
:1016D000190A7E01BAE1EB0EF11C8EEAC82E80E0F9
:1016E000D82ECE0145960E943804B82E8115B9F146
:1016F00088EA90E00E94190A8E010B5E1F4FFE01DE
:101700007596EB0DF11D5F01D8018D918D011F9232
:101710008F93DF92CF92FF92EF920E94DC0BC70172
:101720000E94190A0F900F900F900F900F900F903A
:101730000A151B0549F7BFEFE9E6F8E1B150E040B3
:10174000F040E1F700C0000085EC90E00E94190A2B
:10175000CE0145960E943804B82E8111C9CF83EB83
:1017600090E00E94190AE7CFA1E21A2EAA1BBB1B28
:10177000FD010DC0AA1FBB1FEE1FFF1FA217B3075D
:10178000E407F50720F0A21BB30BE40BF50B661F73
:10179000771F881F991F1A9469F760957095809537
:1017A00090959B01AC01BD01CF010895EE0FFF1F85
:1017B0000590F491E02D0994AEE0B0E0E2EEFBE09C
:1017C0000C94AD0E86E08C832B893C8929833A8367
:1017D0008FEF9FE78D839E83AE01495E5F4F6D89DA
:1017E0007E89CE0101960E94000CEF81F8852B893D
:1017F0003C89E20FF31F10822E96E2E00C94C90E92
:10180000ABE0B0E0E6E0FCE00C94A00E6C017B01E4
:101810008A01FC0116821782838181FFDFC13AE0D1
:10182000532EF6012381F70123FD859123FF81913A
:101830007F01811509F437C1853239F423FD959173
:1018400023FF91917F01953229F4B60190E00E9427
:10185000070EE7CF30E0912C612C712CF0E27F165F
:1018600040F59B32D9F058F49032D1F09332F1F038
:101870009E3291F576FC17C1689476F806C09D32C9
:1018800091F09033C1F4689470F8F70123FD9591BD
:1018900023FF91917F019111E1CF28C0689471F8E5
:1018A000689472F8F2CF689473F8EFCF689474F884
:1018B000ECCF77FC1BC080ED890F8A30C8F676FE2E
:1018C00005C0959C800D1124982EDFCF659C800D5E
:1018D0001124682E7F2AD9CF9C3619F4689477F8A2
:1018E000D4CF9C3409F445C0983679F2892F8F7D86
:1018F0008554833008F43FC0933609F461C09337B0
:1019000009F46BC0933509F477C0943619F0993611
:1019100009F0A4C0F80177FE9AC06191719181919C
:1019200091918F01272D2F76822E97FF04C00E9460
:10193000950E689487F82AE030E05E014FEFA41A14
:10194000B40AA5010E94370E782E7A1886FECFC001
:10195000882D8E7F791408F0C9C084FE1DC182FCD9
:1019600011C12EEE8222B92C882D867809F4CBC0C5
:101970000EC131E08ACF311501F1085F1F4F8FE3AF
:10198000898321E0822E912C5E012FEFA21AB20AE8
:10199000E89477F873FC03C086149104F0F1811485
:1019A000910409F041C0611409F43BCFB60180E213
:1019B00090E00E94070E6A94F6CF0C5F1F4FDFCFB6
:1019C000F801808189830E5F1F4F91E0892E912C51
:1019D0005E01FFEFAF1ABF0ADBCFF801A190B19013
:1019E0008F01692D70E076FC02C06FEF7FEFC501BB
:1019F0000E94FC0D4C01CCCFF801A190B1908F0159
:101A0000692D70E076FC02C06FEF7FEFC5010E9488
:101A1000F10D4C01689477F8BDCFB60180E290E0FB
:101A20000E94070E6A94B8CFF50177FC859177FE86
:101A300081915F01B60190E00E94070E81E0611084
:101A400001C080E0681AF1E08F1A9108A8CF619177
:101A50007191872F880F880B982F63CF9537C9F422
:101A6000872CE89484F82AE030E0F80187FE39C03A
:101A700061917191819191918F015E01FFEFAF1A98
:101A8000BF0AA5010E94370E782E7A18E89487F8CD
:101A90005DCF872D897F882E903799F058F498353F
:101AA000A9F09F36D9F0F601868197812B96EFE059
:101AB0000C94BC0E9837B9F774FC05C020E130E0F7
:101AC000D4CF689484F8689482F8F8CF74FE03C089
:101AD000E72DE6608E2E20E132E0C7CF28E030E02F
:101AE000C4CF6191719180E090E0C6CF882EB72C71
:101AF00084FE3ACFFE01E70DF11D8081803309F0AD
:101B000044C049EE842283FC0EC080FE51C0972C55
:101B1000B61418F4960C9B18B62C862D8B196B14E2
:101B200008F480E0B80EB61408F044C06B1884FEC8
:101B300043C0B60180E390E00E94070E82FE09C018
:101B400088E590E081FC02C088E790E0B6010E9441
:101B5000070E7914E0F15E018FEFA81AB80A7A94A3
:101B600082E0882E912C8C0E9D1E870C911CF40116
:101B700082914F01B60190E00E94070E8A149B04E7
:101B8000B1F711CFB92C882EB5CF82FC02C0B39427
:101B9000BACFB394B394B7CFB92C882EE5CEB601A3
:101BA00080E290E00E94070EA394A614C0F3B5CF84
:101BB000AB2CFBCF612CBBCF882D867851F280E215
:101BC00081FC8BE287FC8DE2B60190E0C0CFB601CC
:101BD00080E390E00E94070E9A94BBCF8FEF9FEFB7
:101BE00065CFFC010590615070400110D8F78095D9
:101BF00090958E0F9F1F0895FC01615070400190D9
:101C00000110D8F7809590958E0F9F1F08950F9320
:101C10001F93CF93DF93182F092FEB018B8181FD49
:101C200009C00FEF1FEF812F902FDF91CF911F91F0
:101C30000F91089582FF14C02E813F818C819D8178
:101C4000281739073CF4E881F981CF010196888390
:101C5000998310838E819F8101968E839F83E3CF2A
:101C6000E885F985812F0995892BA1F3DACFFA014F
:101C7000AA27283051F1203181F1E8946F936E7FCB
:101C80006E5F7F4F8F4F9F4FAF4FB1E03ED0B4E0BC
:101C90003CD0670F781F891F9A1FA11D680F791FFD
:101CA0008A1F911DA11D6A0F711D811D911DA11D0E
:101CB00020D009F468943F912AE0269F112430191E
:101CC000305D3193DEF6CF010895462F4770405DB9
:101CD0004193B3E00FD0C9F7F6CF462F4F70405D68
:101CE0004A3318F0495D31FD4052419302D0A9F7C3
:101CF000EACFB4E0A6959795879577956795BA95BD
:101D0000C9F700976105710508959B01AC010A2E82
:101D100006945795479537952795BA95C9F7620F59
:101D2000731F841F951FA01D089590958095709531
:101D300061957F4F8F4F9F4F08952F923F924F9203
:101D40005F926F927F928F929F92AF92BF92CF924B
:101D5000DF92EF92FF920F931F93CF93DF93CDB754
:101D6000DEB7CA1BDB0B0FB6F894DEBF0FBECDBFCC
:101D700009942A88398848885F846E847D848C849D
:101D80009B84AA84B984C884DF80EE80FD800C81A6
:101D90001B81AA81B981CE0FD11D0FB6F894DEBF89
:101DA0000FBECDBFED010895F894FFCFF809ED09FE
:0A1DB000BC09EC09BB09FA09BA09E5
:101DBA003132334134353642373839434530584465
:101DCA0000010203020202020405060702020202DD
:101DDA000000000380250000000000256C750052F9
:101DEA004649442052656164657220496E69746986
:101DFA00616C697A65640A005549443A20002530C5
:101E0A003258004E6F2043617264204465746563E2
:101E1A007465640A00436865636B696E6720666F60
:0C1E2A007220436172642E2E2E0A00000C
:00000001FF
