:100000000C942A000C9499080C94C2080C94EB08E8
:100010000C9447000C9447000C9447000C94470044
:100020000C9447000C9447000C9447000C94470034
:100030000C9447000C948D0A0C94E50A0C94BC0AAD
:100040000C9447000C9447000C9447000C94470014
:100050000C94470011241FBECFE5D8E0DEBFCDBF12
:1000600012E0A0E6B0E0E4E9FCE102C005900D92E8
:10007000AC37B107D9F723E0ACE7B2E001C01D927D
:10008000A931B207E1F70E940E0B0C94410E0C94BB
:10009000000010927C02089580917C0208951092D5
:1000A0007C020895EF92FF920F931F93CF93DF93FB
:1000B00000D000D0CDB7DEB760E080E00E94A3069C
:1000C00060E08CE890E00E947F0661E080E00E94A2
:1000D000A3068E010F5F1F4F7E0125E0E20EF11C8B
:1000E0000E94BB0490ED980F9A30D0F7F8018193ED
:1000F0008F0160E08AE20E945005FFEF21EE84E06C
:10010000F15020408040E1F700C000000E94BB0495
:100110008F3FE1F70E151F0519F78A81823371F1C0
:1001200010927C0260E080E00E94A30660E08FEA0B
:1001300090E00E947F0641E064E080E00E94F406C7
:100140009FEFEEE9F4E29150E040F040E1F700C0AB
:10015000000060E081E00E94A00560E08EEB90E08E
:100160000E947F0680E00F900F900F900F90DF911C
:10017000CF911F910F91FF90EF9008958B81833362
:1001800079F68C81843361F68981813349F681E087
:1001900080937C0260E080E00E94A30660E086E934
:1001A00090E00E947F0682EA90E00E94FB0941E015
:1001B00063E080E00E94F40681E0D5CF80917C026C
:1001C00081110BC029C0823421F1833451F1843470
:1001D000E9F080917C02811519F160E080E00E94D5
:1001E000A30660E084EC90E00E947F0660E081E07E
:1001F0000E94A30660E083ED90E00E947F060E94CB
:10020000BB04813401F70E94EB02E3CF10927C0221
:1002100008950E94F502DDCF0E9452008111D9CFCE
:1002200008950E94ED0382EE90E00E94FB09D1CF79
:1002300010927D0208950F931F93CF93DF9300D008
:1002400000D000D0CDB7DEB70E94DD028111B9C069
:1002500060E081E00E94A00560E080EF90E00E94F5
:100260007F060E941804682F70E080E090E040E074
:100270000E94B50661E080E00E94A30660E081E094
:100280000E94A00560E08CEF90E00E947F060E9433
:10029000BB048534E1F760E081E00E94A00560E0E6
:1002A00084E091E00E947F0660E081E00E94A30666
:1002B0008E010F5F1F4FCE0105968D839E830E9496
:1002C000BB0490ED980F9A30D0F7F80181938F011D
:1002D00060E08AE20E9450058D819E81081719070F
:1002E00071F78981813321F48A81823309F46EC0E8
:1002F00041E063E080E00E94FC0641E064E080E0D1
:100300000E94F40660E081E00E94A00560E08FEAB0
:1003100090E00E947F062FEF8EE994E2215080400A
:100320009040E1F700C0000060E081E00E94A0057D
:1003300060E084E391E00E947F0681E491E00E9406
:10034000FB09EFEFF9E628E1E150F0402040E1F74A
:1003500000C0000060E081E00E94A00560E081E54F
:1003600091E00E947F068FEF9EE9E4E28150904089
:10037000E040E1F700C0000041E064E080E00E945E
:10038000F40641E063E080E00E94FC0641E064E0A6
:1003900080E00E94FC0641E063E080E00E94F406F9
:1003A00060E081E00E94A00510927D020F900F9006
:1003B0000F900F900F900F90DF91CF911F910F91A1
:1003C00008950E94AF0210927D02F0CF8B8183339B
:1003D00009F08ECF8C81843309F08ACF60E081E010
:1003E0000E94A00560E083E191E00E947F060E94E8
:1003F000EB0282E291E00E94FB090E9403049FEF5E
:10040000E3EDF0E39150E040F040E1F700C0000080
:100410000E94F5020E941E04811529F00E94AF027D
:1004200010927D02C3CF0E94C602FACF81E0809372
:100430007D02089580917D02089560E081E00E9430
:10044000A00560E084E691E00C947F0681E0809353
:100450007E02089510927E0208950E941804823050
:1004600081F10E94FE0260E081E00E94A00560E050
:1004700080E00E94A30660E083EA91E00E947F068C
:100480000E940D0482EB91E00E94FB092FEF83EDA7
:1004900090E3215080409040E1F700C000000E94AE
:1004A00008030E941E04811106C00E94C60260E07B
:1004B00081E00C94A0050E94AF0260E081E00C9402
:1004C000A00560E081E00E94A00560E081E791E086
:1004D0000E947F068FE791E00E94FB0941E063E004
:1004E00080E00E94FC0641E064E080E00E94F406A7
:1004F0002FEF8EE994E2215080409040E1F700C058
:10050000000060E081E00E94A00560E086E991E0E3
:100510000E947F062FEF89E698E1215080409040AD
:10052000E1F700C00000089580917E02813011F053
:1005300080E0089510927E02089563E080E00E94BA
:10054000F10664E080E00E94F10641E063E080E0B3
:100550000E94FC0641E064E080E00C94FC0660E050
:1005600081E00E94A00560E083EC91E00E947F069C
:1005700041E064E080E00E94F40641E063E080E056
:100580000E94FC0680ED91E00C94FB0960E081E0A4
:100590000E94A00560E08EED91E00E947F0641E0A0
:1005A00063E080E00E94F40641E064E080E00E94A5
:1005B000FC0680EF91E00C94FB090E941804982F30
:1005C00081E0911180E008950E9426040E94570462
:1005D00010927F0208950E943A0483E092E00E9404
:1005E000FB0981E080937F0208950E94570486E111
:1005F00092E00E94FB0910927F0208950E943A0443
:1006000089E292E00E94FB0981E080937F020895D5
:100610000E9457048BE392E00E94FB0910927F0234
:10062000089580917F0208950C94C602CF930E9492
:100630001804C82F809160008C1791F060E081E071
:100640000E94A00560E080EF90E00E947F066C2F82
:1006500070E080E090E040E00E94B506C09360004A
:10066000CF910895EF92FF920F931F93CF93DF9353
:10067000CDB7DEB72B970FB6F894DEBF0FBECDBF58
:1006800040E062E083E00E94070740E063E083E02F
:100690000E94070741E062E083E00E94550741E0C5
:1006A00063E083E00E94550766E086E00E94080848
:1006B00066E087E00E94080866E172E080E00E9440
:1006C0008B0866E272E081E00E948B0886E00E945F
:1006D000650887E00E9465080E9414098BE0E1E646
:1006E000F0E0DE01119601900D928A95E1F7E98024
:1006F000FA800B811C812D813E814F81588569854F
:100700007A858B850E941C090E947E0480E00E94ED
:10071000F00563E080E00E94F10664E080E00E9462
:10072000F10682E00E94EB030E9418010E942A0257
:100730000E94E4020E949D020E9449000E9414034C
:1007400060E081E00E94A00560E080E00E94A306D6
:1007500060E08DE492E00E947F0660E081E00E940C
:10076000A30660E085E592E00E947F062FEF8EE908
:1007700094E2215080409040E1F700C0000060E02A
:1007800081E00E94A00560E080E00E94A30660E096
:100790008CE592E00E947F0660E081E00E94A30663
:1007A00060E087E692E00E947F062FEF83ED90E302
:1007B000215080409040E1F700C000002B960FB61A
:1007C000F894DEBF0FBECDBFDF91CF911F910F9187
:1007D000FF90EF9008950C94FE030E941A0281117D
:1007E00005C00E949402811107C008950E941B0158
:1007F0000E9494028115C9F30C942D02809381020A
:100800001092800208958091800290918102891750
:1008100018F48F5F80938002089580918002811583
:1008200019F081508093800208958091800208958C
:100830008091810290918002891B089581E020912E
:10084000800290918102291380E0089541E065E0E3
:1008500083E00E94070741E066E083E00E9407070B
:1008600040E065E083E00E94550740E066E083E0F9
:100870000C94550741E065E083E00E94550740E095
:1008800066E083E00E9455072FEF82E597E0215054
:1008900080409040E1F700C0000040E065E083E068
:1008A0000E94550740E066E083E00C94550740E065
:1008B00065E083E00E94550741E066E083E00E9426
:1008C00055072FEF82E597E0215080409040E1F7F7
:1008D00000C0000040E065E083E00E94550740E072
:1008E00066E083E00C94550740E065E083E00E94F9
:1008F000550740E066E083E00C945507EF92FF92C5
:100900000F931F93CF93DF93C4E8D0E098E8E92ECC
:1009100090E0F92E0991F70111917F0140E0602FDD
:10092000812F0E94070741E0602F812F0E94550709
:10093000F0E0C838DF0771F7CCE7D0E080E8E82EB8
:1009400080E0F82E0991F70111917F0141E0602FBD
:10095000812F0E94070741E0602F812F0E945507D9
:10096000F0E0C038DF0771F7DF91CF911F910F9151
:10097000FF90EF9008952F923F924F925F926F9267
:100980007F928F929F92AF92BF92CF92DF92EF921F
:10099000FF920F931F93CF93DF930F92CDB7DEB7E4
:1009A00019825CE7852E50E0952E60E8662E60E0A7
:1009B000762EA12CB12CF4012080F301308040E090
:1009C000622D832D0E94550734E8C32E30E0D32ECC
:1009D00048E8E42E40E0F42E00E010E0F6015080FC
:1009E000F7014080AE014F5F5F4F652D842D0E945F
:1009F000A3078981811599F19FEFC91AD90AEFEFF1
:100A0000EE1AFE0A0F5F1F4F0430110539F7FFEF92
:100A10008F1A9F0A8FEF681A780A41E0622D832DA2
:100A20000E9455079FEFA91AB90AE4E0AE16B10477
:100A300011F61FEF812F0F90DF91CF911F910F9132
:100A4000FF90EF90DF90CF90BF90AF909F908F90EE
:100A50007F906F905F904F903F902F900895C501C9
:100A6000880F991F880F991F84599F4FFC01E00F31
:100A7000F11F1081AE014F5F5F4F652D842D0E94E5
:100A8000A30789818115B1F38FE39CE90197F1F701
:100A900000C0000041E0622D832D0E945507CACF9F
:100AA000CF93DF930F92CDB7DEB789836130E1F149
:100AB00020F00F90DF91CF91089541E080E00E94F7
:100AC000550740E061E080E00E9455076981607F42
:100AD00081E00E94930741E062E080E00E945507B8
:100AE0008FEC97E00197F1F700C0000040E062E072
:100AF00080E00E94550769816295607F81E00E94D5
:100B0000930741E062E080E00E9455078FEC97E098
:100B10000197F1F700C0000040E062E080E00F9034
:100B2000DF91CF910C94550741E060E080E00E9496
:100B3000550740E061E080E00E9455076981DECF03
:100B4000CF93DF930F92CDB7DEB789836130E1F1A8
:100B500020F00F90DF91CF91089540E080E00E9457
:100B6000550740E061E080E00E9455076981607FA1
:100B700081E00E94930741E062E080E00E94550717
:100B80008FEC97E00197F1F700C0000040E062E0D1
:100B900080E00E94550769816295607F81E00E9434
:100BA000930741E062E080E00E9455078FEC97E0F8
:100BB0000197F1F700C0000040E062E080E00F9094
:100BC000DF91CF910C94550740E060E080E00E94F7
:100BD000550740E061E080E00E9455076981DECF63
:100BE000813009F450C008F0089541E060E00E94AF
:100BF000070741E061E080E00E94070741E062E012
:100C000080E00E9407076FEF81E00E9445079FEB9D
:100C10002AED80E0915020408040E1F700C00000C4
:100C200060E082E00E94A0058FEC97E00197F1F769
:100C300000C0000060E088E20E94A0058FEC97E011
:100C40000197F1F700C0000060E08CE00E94A00571
:100C50008FEC97E00197F1F700C0000060E081E0C1
:100C60000E94A0058FE99FE00197F1F700C0000006
:100C700060E086E00E94A0058FEC97E00197F1F715
:100C800000C00000089541E060E080E00E94070796
:100C900041E061E080E00E94070741E062E080E01F
:100CA0000E9407076FEF81E00E9445072FEB8AED56
:100CB00090E0215080409040E1F700C0000061E0EA
:100CC00088E30E94A0058FEC97E00197F1F700C040
:100CD000000061E08EE00E94A0058FEC97E0019794
:100CE000F1F700C0000061E081E00E94A0058FE9FB
:100CF0009FE00197F1F700C0000061E0BACF0F93C9
:100D00001F93CF93DF9300D0CDB7DEB78C016983FB
:100D1000009791F0FC018081811571F01A82698140
:100D20000E945005FA81FF5FFA83F8018A81E80F7B
:100D3000F11D80818111F3CF0F900F90DF91CF9142
:100D40001F910F910895813058F031F480E4860F9F
:100D5000806860E00C94A00580E860E00C94A00539
:100D6000862F806860E00C94A005FF920F931F937C
:100D7000CF93DF93CDB7DEB72C970FB6F894DEBFD5
:100D80000FBECDBF4C879F938F937F936F9387E761
:100D900092E09F938F938E010F5F1F4F1F930F93CE
:100DA0000E94490B89810FB6F894DEBF0FBECDBFFC
:100DB000811559F0F12C6C850E945005F394F801CF
:100DC000EF0DF11D80818111F6CF2C960FB6F894AE
:100DD000DEBF0FBECDBFDF91CF911F910F91FF906E
:100DE000089541E00C940707413021F0423009F0AA
:100DF000089540E00C945507413019F0423021F03D
:100E0000089540E00C94550741E00C945507843058
:100E1000C0F46830B0F44130A9F098F421E001C08A
:100E2000220F6A95EAF72095823039F1833031F04C
:100E3000813039F18AB382238ABB089581B382233A
:100E400081BB089521E001C0220F6A95EAF7823044
:100E500061F0833031F0813061F08AB3822B8ABB3C
:100E6000089581B3822B81BB089584B3822B84BB08
:100E7000089587B3822B87BB089584B3822384BBF4
:100E8000089587B3822387BB0895823049F020F408
:100E9000811541F067BB0895833031F461BB08953B
:100EA00064BB08956ABB089508958430C0F4683027
:100EB000B0F44130A9F098F421E001C0220F6A9506
:100EC000EAF72095823039F1833031F0813039F101
:100ED0008BB382238BBB089582B3822382BB089598
:100EE00021E001C0220F6A95EAF7823061F0833079
:100EF00031F0813061F08BB3822B8BBB089582B3CC
:100F0000822B82BB089585B3822B85BB089588B35D
:100F1000822B88BB089585B3822385BB089588B34F
:100F2000822388BB0895823049F020F4811541F076
:100F300068BB0895833031F462BB089565BB0895A2
:100F40006BBB0895089541155105A1F0843090F4CC
:100F5000683080F4823099F0833079F0813059F430
:100F600086B390E002C0959587956A95E2F7817007
:100F7000FA018083089589B3F4CF80B3F2CF83B3AD
:100F8000F0CF6115710571F0823091F030F4811568
:100F900059F086B3FB0180830895833021F480B338
:100FA000FB0180830895089589B3FB018083089530
:100FB00083B3FB01808308958230B9F058F4811522
:100FC000E9F088B321E001C0220F6A95EAF7822791
:100FD00088BB08958330D9F482B321E001C0220F89
:100FE0006A95EAF7822782BB089585B321E001C0A4
:100FF000220F6A95EAF7822785BB08958BB321E01B
:1010000001C0220F6A95EAF782278BBB08950895E5
:101010008630B1F0873019F0853009F108956430D9
:1010200069F1653009F443C0663009F447C06730A0
:10103000A9F785B7846085BF85B7886085BF0895A7
:10104000643019F1653099F0663031F1673031F76D
:1010500085B7816085BF85B7826085BF089566309A
:1010600011F16730D9F684B7806484BF089585B7DD
:10107000816085BF85B78D7F85BF089585B78B7FDC
:1010800085BF85B7877F85BF089585B78E7F85BF6C
:1010900085B78D7F85BF089585B78E7F85BF85B75E
:1010A000826085BF089584B78F7B84BF089585B71C
:1010B000846085BF85B7877F85BF089585B78B7F9F
:1010C00085BF85B7886085BF0895863049F0873031
:1010D00019F0853049F008958BB780688BBF08956B
:1010E0008BB780648BBF08958BB780628BBF0895E8
:1010F000863049F0873019F0853049F008958BB774
:101100008F778BBF08958BB78F7B8BBF08958BB77D
:101110008F7D8BBF0895833058F46115710541F0C0
:10112000E82FF0E0EE0FFF1FEE57FD4F6083718355
:1011300008951F920F920FB60F9211242F933F9391
:101140004F935F936F937F938F939F93AF93BF93CF
:10115000EF93FF93E0918202F0918302309709F0C0
:101160000995FF91EF91BF91AF919F918F917F91E1
:101170006F915F914F913F912F910F900FBE0F9004
:101180001F9018951F920F920FB60F9211242F9354
:101190003F934F935F936F937F938F939F93AF93FF
:1011A000BF93EF93FF93E0918402F0918502309713
:1011B00009F00995FF91EF91BF91AF919F918F91A8
:1011C0007F916F915F914F913F912F910F900FBE43
:1011D0000F901F9018951F920F920FB60F92112427
:1011E0002F933F934F935F936F937F938F939F932F
:1011F000AF93BF93EF93FF93E0918602F091870244
:10120000309709F00995FF91EF91BF91AF919F91B0
:101210008F917F916F915F914F913F912F910F909F
:101220000FBE0F901F9018958FB780688FBF0895DD
:101230008FB78F778FBF0895EF92FF920F931F9311
:10124000CF93DF93CDB7DEB72B970FB6F894DEBF01
:101250000FBECDBFAE2DE982FF2DFA82E02F0B83AA
:10126000912F1C832D833E834F835887062F6987D8
:10127000672F7A87182F8B872D813E814F81588564
:10128000E0928A02F0928B02E0938C0290938D029E
:1012900020938E0230938F024093900250939102DC
:1012A00000939202709393028093940280ECA13099
:1012B00009F080E8E13009F474C0E23009F45AC062
:1012C000F13009F45BC0913058F009F46FC09230EE
:1012D00009F475C0933009F46BC0973009F468C005
:1012E00080BD6130E8F55998220F331F441F551F08
:1012F000220F331F441F551F220F331F441F551F3A
:10130000220F331F441F551F60E072E18AE790E00F
:101310000E94210B21503109922F832F99B980BD52
:101320005798569855981150173048F4E12FF0E02F
:10133000ED5BF14F0C94430B569A579A559A013036
:1013400098F4549A53982B960FB6F894DEBF0FBEBC
:10135000CDBFDF91CF911F910F91FF90EF90089536
:1013600079F080E090E0DACFF1F0023061F7549A42
:10137000539AE9CF8063F13009F0A5CF8860A3CFFD
:10138000599A220F331F441F551F220F331F441F2A
:10139000551F220F331F441F551FB6CF579A569A19
:1013A000CECF80628DCF539A5498CDCF826098CFA4
:1013B000866096CF579AC3CF569A559AC0CF84600D
:1013C0008FCF9C015D9BFECF80918D02893011F003
:1013D0002CB90895509830FFFBCF509A2CB908953E
:1013E0005F9BFECF80918D02893009F48AB18CB168
:1013F0008CB190E00895DC019C91911581F020E082
:1014000080918D025D9BFECF893009F450989CB984
:101410002F5FFD01E20FF11D90819111F3CF08952F
:10142000DC01892BD9F05F9BFECF80918D02893042
:10143000B1F09CB19CB19C936917B9F090E09F5FAB
:101440005F9BFECF893009F42AB12CB12CB1FD018C
:10145000E90FF11D20836213F2CF108208959AB133
:101460009CB19CB19C936913E9CFFD011082089552
:101470006115710579F0FC01680F791F90918D025B
:1014800081915D9BFECF993009F450988CB9E61795
:10149000F707B1F70895DC01909188022091890245
:1014A0002917A9F0E92FF0E0EE0FFF1FE756FD4FD7
:1014B000208131812D933D939F5F903420F4909350
:1014C000880281E008951092880281E0089580E00A
:1014D0000895549A0895539A0895549808955398E6
:1014E00008950895579A0895569A0895559A08951B
:1014F0005798089556980895559808950895009717
:1015000021F080939702909398020895009721F01C
:10151000809395029093960208952F932FB72F935F
:101520003F938F939F93EF93FF9380918D0287302A
:10153000D9F02CB130E080918902E82FF0E08F5F84
:10154000803408F080E0EE0FFF1FE756FD4F208348
:10155000318380938902FF91EF919F918F913F9109
:101560002F912FBF2F9118958AB186952CB130E01D
:1015700080FFE1CF31E0DFCF1F920F920FB60F92C5
:1015800011242F933F934F935F936F937F938F9388
:101590009F93AF93BF93EF93FF93E0919702F091E6
:1015A0009802309709F00995FF91EF91BF91AF91A3
:1015B0009F918F917F916F915F914F913F912F916B
:1015C0000F900FBE0F901F9018951F920F920FB69D
:1015D0000F9211242F933F934F935F936F937F93B9
:1015E0008F939F93AF93BF93EF93FF93E0919502F7
:1015F000F0919602309709F00995FF91EF91BF9114
:10160000AF919F918F917F916F915F914F913F919A
:101610002F910F900FBE0F901F90189541E060E042
:1016200080E00E94070760E080E00E94DC072FEF67
:1016300084E39CE0215080409040E1F700C000002E
:10164000F2CFA1E21A2EAA1BBB1BFD010DC0AA1FDF
:10165000BB1FEE1FFF1FA217B307E407F50720F01B
:10166000A21BB30BE40BF50B661F771F881F991F96
:101670001A9469F760957095809590959B01AC01DF
:10168000BD01CF010895EE0FFF1F0590F491E02DED
:101690000994AEE0B0E0EFE4FBE00C941A0E86E0B3
:1016A0008C832B893C8929833A838FEF9FE78D8335
:1016B0009E83AE01495E5F4F6D897E89CE010196A2
:1016C0000E946D0BEF81F8852B893C89E20FF31F97
:1016D00010822E96E2E00C94360EABE0B0E0E3E729
:1016E000FBE00C940D0E6C017B018A01FC0116825B
:1016F0001782838181FFDFC13AE0532EF6012381F7
:10170000F70123FD859123FF81917F01811509F464
:1017100037C1853239F423FD959123FF91917F01E3
:10172000953229F4B60190E00E94740DE7CF30E0C5
:10173000912C612C712CF0E27F1640F59B32D9F090
:1017400058F49032D1F09332F1F09E3291F576FC5C
:1017500017C1689476F806C09D3291F09033C1F4B9
:10176000689470F8F70123FD959123FF91917F0113
:101770009111E1CF28C0689471F8689472F8F2CFA3
:10178000689473F8EFCF689474F8ECCF77FC1BC0C3
:1017900080ED890F8A30C8F676FE05C0959C800DD5
:1017A0001124982EDFCF659C800D1124682E7F2A8E
:1017B000D9CF9C3619F4689477F8D4CF9C3409F4C7
:1017C00045C0983679F2892F8F7D8554833008F48F
:1017D0003FC0933609F461C0933709F46BC0933569
:1017E00009F477C0943619F0993609F0A4C0F801CD
:1017F00077FE9AC061917191819191918F01272D0E
:101800002F76822E97FF04C00E94020E689487F8FC
:101810002AE030E05E014FEFA41AB40AA5010E944D
:10182000A40D782E7A1886FECFC0882D8E7F79146D
:1018300008F0C9C084FE1DC182FC11C12EEE8222B7
:10184000B92C882D867809F4CBC00EC131E08ACF3F
:10185000311501F1085F1F4F8FE3898321E0822E4C
:10186000912C5E012FEFA21AB20AE89477F873FC6C
:1018700003C086149104F0F18114910409F041C071
:10188000611409F43BCFB60180E290E00E94740D30
:101890006A94F6CF0C5F1F4FDFCFF80180818983F8
:1018A0000E5F1F4F91E0892E912C5E01FFEFAF1A62
:1018B000BF0ADBCFF801A190B1908F01692D70E0D4
:1018C00076FC02C06FEF7FEFC5010E94690D4C01ED
:1018D000CCCFF801A190B1908F01692D70E076FC1A
:1018E00002C06FEF7FEFC5010E945E0D4C0168944E
:1018F00077F8BDCFB60180E290E00E94740D6A9443
:10190000B8CFF50177FC859177FE81915F01B60133
:1019100090E00E94740D81E0611001C080E0681ABF
:10192000F1E08F1A9108A8CF61917191872F880FEC
:10193000880B982F63CF9537C9F4872CE89484F8E7
:101940002AE030E0F80187FE39C061917191819100
:1019500091918F015E01FFEFAF1ABF0AA5010E94AE
:10196000A40D782E7A18E89487F85DCF872D897FAB
:10197000882E903799F058F49835A9F09F36D9F011
:10198000F601868197812B96EFE00C94290E98370B
:10199000B9F774FC05C020E130E0D4CF689484F836
:1019A000689482F8F8CF74FE03C0E72DE6608E2EAF
:1019B00020E132E0C7CF28E030E0C4CF61917191DF
:1019C00080E090E0C6CF882EB72C84FE3ACFFE018F
:1019D000E70DF11D8081803309F044C049EE842277
:1019E00083FC0EC080FE51C0972CB61418F4960CE0
:1019F0009B18B62C862D8B196B1408F480E0B80E5A
:101A0000B61408F044C06B1884FE43C0B60180E3EE
:101A100090E00E94740D82FE09C088E590E081FC90
:101A200002C088E790E0B6010E94740D7914E0F1DD
:101A30005E018FEFA81AB80A7A9482E0882E912C62
:101A40008C0E9D1E870C911CF40182914F01B601F2
:101A500090E00E94740D8A149B04B1F711CFB92C49
:101A6000882EB5CF82FC02C0B394BACFB394B3949E
:101A7000B7CFB92C882EE5CEB60180E290E00E9467
:101A8000740DA394A614C0F3B5CFAB2CFBCF612C7F
:101A9000BBCF882D867851F280E281FC8BE287FCF7
:101AA0008DE2B60190E0C0CFB60180E390E00E94E5
:101AB000740D9A94BBCF8FEF9FEF65CFFC0105901B
:101AC000615070400110D8F7809590958E0F9F1F40
:101AD0000895FC016150704001900110D8F7809585
:101AE00090958E0F9F1F08950F931F93CF93DF93B1
:101AF000182F092FEB018B8181FD09C00FEF1FEF1C
:101B0000812F902FDF91CF911F910F91089582FF28
:101B100014C02E813F818C819D81281739073CF4A8
:101B2000E881F981CF0101968883998310838E81A2
:101B30009F8101968E839F83E3CFE885F985812F6E
:101B40000995892BA1F3DACFFA01AA27283051F1A0
:101B5000203181F1E8946F936E7F6E5F7F4F8F4FDE
:101B60009F4FAF4FB1E03ED0B4E03CD0670F781F3D
:101B7000891F9A1FA11D680F791F8A1F911DA11D22
:101B80006A0F711D811D911DA11D20D009F468945B
:101B90003F912AE0269F11243019305D3193DEF603
:101BA000CF010895462F4770405D4193B3E00FD0B9
:101BB000C9F7F6CF462F4F70405D4A3318F0495DA4
:101BC00031FD4052419302D0A9F7EACFB4E0A69587
:101BD0009795879577956795BA95C9F700976105A9
:101BE000710508959B01AC010A2E069457954795FF
:101BF00037952795BA95C9F7620F731F841F951FF4
:101C0000A01D089590958095709561957F4F8F4F99
:101C10009F4F08952F923F924F925F926F927F92C3
:101C20008F929F92AF92BF92CF92DF92EF92FF92EC
:101C30000F931F93CF93DF93CDB7DEB7CA1BDB0B98
:101C40000FB6F894DEBF0FBECDBF09942A8839883D
:101C500048885F846E847D848C849B84AA84B98444
:101C6000C884DF80EE80FD800C811B81AA81B98150
:101C7000CE0FD11D0FB6F894DEBF0FBECDBFED0164
:101C80000895F894FFCFDA09CF099E09CE099D097E
:041C9000DC099C09C6
:101C9400FF000000038025000002000031323341C0
:101CA400343536423738394345305844000102034D
:101CB40002020202040506070202020250415353C3
:101CC400574F52443A0041444D494E204C4F4749E6
:101CD4004E0041444D494E204C4F47494E0A00574F
:101CE400524F4E472050415353574F524400455290
:101CF400524F5200413A4F50454E20423A434C4FC6
:101D0400534500433A524553455420443A455849B3
:101D1400540053595354454D2052455345540A00D9
:101D2400417661696C61626C653A2000507265733A
:101D340073204500454E5445522050415353574F4C
:101D4400524400414343455353204752414E544566
:101D5400440056454849434C4520454E5445524558
:101D6400440D0A004552524F522053595354454D85
:101D740000204552524F5220454E5445524E200A9F
:101D84000053595354454D2057414954494E472E09
:101D94002E2E2E0053797374656D204572726F7206
:101DA400005041524B494E4720454D50545900452F
:101DB40052524F523A205041524B494E4720454DC2
:101DC4005054590D0A0053595354454D205354410E
:101DD40052540056454849434C45204558495445BA
:101DE400440056454849434C4520455849544544C8
:101DF4000D0A005061726B696E672046756C6C0049
:101E04005041524B494E472046554C4C0A005061B4
:101E1400726B696E6720417661696C61626C650002
:101E24005041524B494E4720415641494C41424C46
:101E3400450A00454E5452592047415445204F50BD
:101E4400454E45440A00454E545259204741544595
:101E540020434C4F5345440A0045584954204741B8
:101E64005445204F50454E45440A00455849542096
:101E74004741544520434C4F5345440A005359535A
:101E840054454D20005354415254200057656C630F
:101E94006F6D6520746F0047657374616C6C2050BE
:0C1EA40061726B696E6700256C750000B0
:00000001FF
