:100000000C942A000C949B050C94C4050C94ED05EB
:100010000C9447000C9447000C9447000C94470044
:100020000C9447000C9447000C94DF060C940607D0
:100030000C9447000C94FB080C945A090C94310959
:100040000C9447000C9447000C9447000C94470014
:100050000C94470011241FBECFE5D8E0DEBFCDBF12
:1000600010E0A0E6B0E0ECE5F9E102C005900D92E9
:10007000AA38B107D9F721E0AAE8B0E001C01D9283
:10008000A832B207E1F70E941A030C94AC0C0C944E
:10009000000040E065E083E00E94EE0340E066E09F
:1000A00083E00E94EE03089541E065E083E00E9452
:1000B0005E0341E066E083E00E945E030E94490027
:1000C000089541E065E083E00E94EE0340E066E0D1
:1000D00083E00E94EE032FEF82E597E021508040FD
:1000E0009040E1F700C000000E944900089540E000
:1000F00065E083E00E94EE0341E066E083E00E9459
:10010000EE032FEF82E597E0215080409040E1F729
:1001100000C000000E9449000895EF92FF921F93D3
:10012000CF93DF9310E015C0C12FD0E0CE018858E7
:100130009F4F7C01C458DF4F40E0FC016081888103
:100140000E945E0341E0F701608188810E94EE0316
:100150001F5F143048F310E015C0C12FD0E0CE016E
:1001600080599F4F7C01CC58DF4F41E0FC016081FA
:1001700088810E945E0341E0F701608188810E94CE
:10018000EE031F5F143048F3DF91CF911F91FF9072
:10019000EF900895CF92DF92EF92FF920F931F930B
:1001A000CF93DF930F92CDB7DEB7198200E038C04E
:1001B000F601EE0FFF1FEE0FFF1FE05AFF4FEE0D8F
:1001C000FF1D1081AE014F5F5F4FF701E858FF4FF1
:1001D0006081F701E458FF4F80810E947E0489818D
:1001E000811581F38FE39CE90197F1F700C00000CE
:1001F000D601A059BF4FF601EC58FF4F41E06C917A
:1002000080810E94EE0334C0D601A059BF4FF60191
:10021000EC58FF4F41E06C9180810E94EE030F5F2C
:10022000043028F5C02ED12CD601A059BF4FF601BD
:10023000EC58FF4F40E06C9180810E94EE0310E08B
:10024000143010F7E12EF12CD701A858BF4FF70159
:10025000E458FF4FAE014F5F5F4F6C9180810E9469
:100260007E048981811509F4A3CF1F5FE9CF1FEFB9
:10027000812F0F90DF91CF911F910F91FF90EF9001
:10028000DF90CF900895CF93DF930F92CDB7DEB775
:100290008983613029F018F10F90DF91CF91089593
:1002A00041E060E080E00E94EE0340E061E080E039
:1002B0000E94EE03698181E00E946C0441E062E0EB
:1002C00080E00E94EE038FEC97E00197F1F700C009
:1002D000000040E062E080E00E94EE03DDCF41E0FC
:1002E00080E00E94EE0340E061E080E00E94EE03C7
:1002F0006981607F81E00E946C0441E062E080E0FF
:100300000E94EE038FEC97E00197F1F700C0000028
:1003100040E062E080E00E94EE0369816295607FC8
:1003200081E00E946C0441E062E080E00E94EE0304
:100330008FEC97E00197F1F700C0000040E062E029
:1003400080E00E94EE03A8CFCF93DF930F92CDB74A
:10035000DEB78983613029F018F10F90DF91CF91DA
:10036000089540E060E080E00E94EE0340E061E03C
:1003700080E00E94EE03698181E00E946C0441E00C
:1003800062E080E00E94EE038FEC97E00197F1F7C6
:1003900000C0000040E062E080E00E94EE03DDCF9C
:1003A00040E080E00E94EE0340E061E080E00E94D7
:1003B000EE036981607F81E00E946C0441E062E0AD
:1003C00080E00E94EE038FEC97E00197F1F700C008
:1003D000000040E062E080E00E94EE0369816295E7
:1003E000607F81E00E946C0441E062E080E00E9456
:1003F000EE038FEC97E00197F1F700C0000040E0BA
:1004000062E080E00E94EE03A8CF813019F008F48A
:1004100046C0089541E060E080E00E945E0341E054
:1004200061E080E00E945E0341E062E080E00E94C3
:100430005E036FEF81E00E94DC032FEB8AED90E01A
:10044000215080409040E1F700C0000061E088E367
:100450000E94A4018FEC97E00197F1F700C0000023
:1004600061E08EE00E94A4018FEC97E00197F1F724
:1004700000C0000061E081E00E94A4018FE99FE0DC
:100480000197F1F700C0000061E086E00E94A4013E
:100490008FEC97E00197F1F700C00000089541E06C
:1004A00060E00E945E0341E061E080E00E945E0344
:1004B00041E062E080E00E945E036FEF81E00E9415
:1004C000DC039FEB2AED80E0915020408040E1F773
:1004D00000C0000060E082E00E94A4018FEC97E081
:1004E0000197F1F700C0000060E088E20E94A401DB
:1004F0008FEC97E00197F1F700C0000060E08CE01E
:100500000E94A4018FEC97E00197F1F700C0000072
:1005100060E081E00E94A4018FE99FE00197F1F77C
:1005200000C0000060E086E00E94A4018FEC97E02C
:100530000197F1F700C0000008950F931F93CF9328
:10054000DF9300D0CDB7DEB7082F192F69830115CF
:10055000110579F01A8206C069810E9443018A81DF
:100560008F5F8A83F8018A81E80FF11D80818111F4
:10057000F3CF0F900F90DF91CF911F910F910895BE
:10058000982F862F913010F031F4805C60E0806805
:100590000E94A401089580E0F9CF0F931F93CF9399
:1005A000DF93CDB7DEB72C970FB6F894DEBF0FBE42
:1005B000CDBF4C879F938F937F936F9385E890E097
:1005C0009F938F938E010F5F1F4F1F930F930E9476
:1005D000B4096C85C8010E949D020FB6F894DEBF75
:1005E0000FBECDBF2C960FB6F894DEBF0FBECDBFA9
:1005F000DF91CF911F910F91089541E00E945E031A
:100600000895413019F0423021F008950E94EE0320
:10061000089540E00E94EE030895413019F0423001
:1006200029F0089540E00E94EE03089541E00E9401
:10063000EE030895CF93DF9300D000D00F92CDB793
:10064000DEB741E063E081E00E945E0385E0E0E820
:10065000F0E0DE01119601900D928A95E1F7498153
:100660005A816B817C818D810E941E0682E00E94EE
:10067000940682E30E94B9062FEF83ED90E32150A8
:1006800080409040E1F700C000008BE40E94B90672
:100690002FEF83ED90E3215080409040E1F700C0C0
:1006A000000084E60E94B9062FEF83ED90E321500D
:1006B00080409040E1F700C00000DBCF843008F0BC
:1006C00061C0683008F05EC04130C1F008F05AC027
:1006D000823009F465C008F048C0813008F454C085
:1006E00009F042C027B381E090E002C0880F991F53
:1006F0006A95E2F78095822387BB0895823049F19D
:1007000078F48130D8F059F487B321E030E002C0AA
:10071000220F331F6A95E2F7822B87BB0895089555
:10072000833059F481B321E030E002C0220F331F3F
:100730006A95E2F7822B81BB089508958AB321E080
:1007400030E002C0220F331F6A95E2F7822B8ABB8A
:10075000089584B321E030E002C0220F331F6A9570
:10076000E2F7822B84BB08950895833061F421B3AE
:1007700081E090E002C0880F991F6A95E2F78095AA
:10078000822381BB089508952AB381E090E002C0DE
:10079000880F991F6A95E2F7809582238ABB089596
:1007A00024B381E090E002C0880F991F6A95E2F7B8
:1007B0008095822384BB0895823071F030F48130BB
:1007C00048F011F467BB08950895833011F461BBBC
:1007D000089508956ABB089564BB0895843008F0B5
:1007E00061C0683008F05EC04130C1F008F05AC006
:1007F000823009F465C008F048C0813008F454C064
:1008000009F042C028B381E090E002C0880F991F30
:100810006A95E2F78095822388BB0895823049F17A
:1008200078F48130D8F059F488B321E030E002C088
:10083000220F331F6A95E2F7822B88BB0895089533
:10084000833059F482B321E030E002C0220F331F1D
:100850006A95E2F7822B82BB089508958BB321E05D
:1008600030E002C0220F331F6A95E2F7822B8BBB68
:10087000089585B321E030E002C0220F331F6A954E
:10088000E2F7822B85BB08950895833061F422B38B
:1008900081E090E002C0880F991F6A95E2F7809589
:1008A000822382BB089508952BB381E090E002C0BB
:1008B000880F991F6A95E2F7809582238BBB089574
:1008C00025B381E090E002C0880F991F6A95E2F796
:1008D0008095822385BB0895823071F030F4813099
:1008E00048F011F468BB08950895833011F462BB99
:1008F000089508956BBB089565BB0895E42FF52F07
:10090000309701F18430F0F46830E0F4823031F156
:1009100070F48130C8F051F486B390E002C0959530
:1009200087956A95E2F781708083089508958330F2
:1009300051F480B390E002C0959587956A95E2F7EF
:10094000817080830895089589B390E002C09595E1
:1009500087956A95E2F781708083089583B390E06C
:1009600002C0959587956A95E2F781708083089516
:10097000E62FF72F309771F0823089F038F481300C
:1009800058F019F486B3808308950895833019F4DC
:1009900080B380830895089589B38083089583B3D5
:1009A00080830895823049F178F48130D8F059F489
:1009B00088B321E030E002C0220F331F6A95E2F7CE
:1009C000822788BB08950895833059F482B321E0CB
:1009D00030E002C0220F331F6A95E2F7822782BB04
:1009E000089508958BB321E030E002C0220F331F39
:1009F0006A95E2F782278BBB089585B321E030E04A
:100A000002C0220F331F6A95E2F7822785BB089543
:100A1000863031F0873041F1853009F449C00895BE
:100A2000643069F0653091F06630B9F06730B9F73D
:100A300085B7816085BF85B7826085BF089585B71A
:100A40008E7F85BF85B78D7F85BF089585B781600F
:100A500085BF85B78D7F85BF089585B78E7F85BF9C
:100A600085B7826085BF0895643069F0653091F084
:100A70006630B9F0673099F685B7846085BF85B771
:100A8000886085BF089585B78B7F85BF85B7877FD1
:100A900085BF089585B7846085BF85B7877F85BF8B
:100AA000089585B78B7F85BF85B7886085BF08951A
:100AB000663039F0673009F0B2CF84B7806484BF04
:100AC000089584B78F7B84BF0895863029F08730DE
:100AD00039F0853049F008958BB780648BBF089555
:100AE0008BB780688BBF08958BB780628BBF0895EA
:100AF000863029F0873039F0853049F008958BB77A
:100B00008F7B8BBF08958BB78F778BBF08958BB783
:100B10008F7D8BBF0895262F372F833058F42115F2
:100B2000310541F0E82FF0E0EE0FFF1FE657FF4FD1
:100B30003183208308951F920F920FB60F921124D4
:100B40002F933F934F935F936F937F938F939F93D5
:100B5000AF93BF93EF93FF93E0918A00F0918B00E6
:100B6000309709F00995FF91EF91BF91AF919F9157
:100B70008F917F916F915F914F913F912F910F9046
:100B80000FBE0F901F9018951F920F920FB60F92E5
:100B900011242F933F934F935F936F937F938F9382
:100BA0009F93AF93BF93EF93FF93E0918C00F091ED
:100BB0008D00309709F00995FF91EF91BF91AF91AA
:100BC0009F918F917F916F915F914F913F912F9165
:100BD0000F900FBE0F901F9018951F920F920FB697
:100BE0000F9211242F933F934F935F936F937F93B3
:100BF0008F939F93AF93BF93EF93FF93E0918E00FA
:100C0000F0918F00309709F00995FF91EF91BF9116
:100C1000AF919F918F917F916F915F914F913F9194
:100C20002F910F900FBE0F901F9018958FB780686F
:100C30008FBF08958FB78F778FBF0895CF93DF93BE
:100C400000D000D00F92CDB7DEB749835A836B83B3
:100C50007C838D8313BE8981813098F483B78F7B29
:100C600083BF83B7877F83BF8A8182BF89B7816053
:100C700089BF0F900F900F900F900F90DF91CF9141
:100C8000089589F08230D9F0833099F783B7806472
:100C900083BF83B7877F83BF8C81813089F18230A6
:100CA000C9F11CBAE6CF83B78F7B83BF83B7886057
:100CB00083BF8B818CBB89B7826089BFDACF83B752
:100CC000806483BF83B7886083BF8C81813021F0CB
:100CD000823061F01CBACDCF83B78F7E83BF83B7DC
:100CE000806283BF81E080939400F4CF83B78061FA
:100CF00083BF83B7806283BF82E080939400EACF92
:100D000083B78F7E83BF83B7806283BF81E0809388
:100D10009400C7CF83B7806183BF83B7806283BFEE
:100D200082E080939400BDCF811521F093B7987F26
:100D3000892B83BF089583B7887F83BF089582BFBF
:100D400008958CBB0895262F372F813040F421154C
:100D5000310531F03093930020939200089509F00B
:100D6000089521153105E1F330939100209390000F
:100D70000895853640F490919400913029F0923096
:100D800081F020E02CBB0895282F30E0AFEFB0E0D9
:100D90000E94830924E630E040E050E00E9492097E
:100DA000F1CF282F30E0AFEFB0E00E94830924E6B6
:100DB00030E040E050E00E9492092095E3CF1F927E
:100DC0000F920FB60F9211242F933F934F935F937F
:100DD0006F937F938F939F93AF93BF93EF93FF9303
:100DE000E0919000F09191000995FF91EF91BF91F2
:100DF000AF919F918F917F916F915F914F913F91B3
:100E00002F910F900FBE0F901F9018951F920F9269
:100E10000FB60F9211242F933F934F935F936F93CD
:100E20007F938F939F93AF93BF93EF93FF93E09143
:100E30009200F09193000995FF91EF91BF91AF91CE
:100E40009F918F917F916F915F914F913F912F91E2
:100E50000F900FBE0F901F901895282F392F5D9B74
:100E6000FECF80919A00893011F02CB908958AB193
:100E70008E7F8AB930FFF9CF8AB181608AB9F5CF08
:100E80005F9BFECF80919A00893021F08CB18CB1AC
:100E900090E008958AB1FACF0F931F93CF93082F54
:100EA000192FC0E004C090E00E942D07CF5FF80129
:100EB000EC0FF11D80818111F6CFCF911F910F9121
:100EC00008950F931F93CF93DF93082F192FD62FD9
:100ED00001151105A1F00E944007F8018083C0E0D0
:100EE00007C0CF5F0E944007F801EC0FF11D80831F
:100EF000F801EC0FF11D80818D13F3CF1082DF918B
:100F0000CF911F910F910895EF92FF920F931F932E
:100F1000CF93DF93E82EF92E062F172FC0E0D0E0F5
:100F200008C0F701EC0FFD1F808190E00E942D07A3
:100F30002196C017D107A8F3DF91CF911F910F9190
:100F4000FF90EF900895A82FB92F9091960080916F
:100F50009500981799F0E82FF0E0EE0FFF1FE85585
:100F6000FF4F208131812D933D938F5F80939500BA
:100F7000803430F01092950081E0089580E008956B
:100F800081E008958AB180618AB908958AB1886044
:100F90008AB908958AB18F7E8AB908958AB1877F08
:100FA0008AB9089508958AB180688AB908958AB186
:100FB00080648AB908958AB180628AB908958AB135
:100FC0008F778AB908958AB18F7B8AB908958AB1DB
:100FD0008F7D8AB90895EF92FF920F931F93CF935D
:100FE000DF93CDB7DEB72B970FB6F894DEBF0FBEF9
:100FF000CDBFE982FA820B831C832D833E834F830E
:10100000588769877A878B878BE0FE013196A7E93D
:10101000B0E001900D928A95E1F78981813018F056
:10102000D1F180E801C080E89B819130B1F192302C
:10103000B1F19A819130A8F5877F9C819130A0F51C
:10104000897F80BD8A85813008F03FC08BB18D7F5C
:101050008BB98A858130F1F108F07EC02D813E8107
:101060004F815885220F331F441F551F220F331FF6
:10107000441F551F220F331F441F551F220F331FBC
:10108000441F551F60E072E18AE790E00E949209D8
:101090002150310937C080ECC7CF8062CACF80634E
:1010A000C8CF59F68860C9CF41F0923049F09330EB
:1010B00051F0973031F68660C4CF8B7F8260C1CF0C
:1010C0008D7F8460BECF8660BCCF19F68BB1826005
:1010D0008BB9BFCF2D813E814F815885220F331FA1
:1010E000441F551F220F331F441F551F220F331F4C
:1010F000441F551F60E072E18AE790E00E94920968
:101100002150310929B930BD0E94DF070E94E30751
:101110000E94E7078B85813011F1823019F183300D
:1011200021F1843029F1853041F1863059F1873041
:1011300071F18985813090F1B1F18230C9F12B963E
:101140000FB6F894DEBF0FBECDBFDF91CF911F91D8
:101150000F91FF90EF90089520E030E0D3CF0E94F0
:10116000D307E7CF0E94D707E4CF0E94DB07E1CF88
:101170000E94D3070E94D707DCCF0E94D3070E94AA
:10118000DB07D7CF0E94D7070E94DB07D2CF0E9490
:10119000D7070E94D3070E94DB07CBCF0E94C2076C
:1011A0000E94CE07CCCF0E94C6070E94CA07C7CFB5
:1011B0000E94C2070E94C607C2CF282F392F2115CF
:1011C000310521F03093A7002093A6000895282F21
:1011D000392F2115310521F03093A5002093A4006B
:1011E0000895282F392F2115310521F03093A300C0
:1011F0002093A20008951F920F920FB60F92112410
:101200002F933F938F939F93EF93FF9380919A0037
:101210008730F1F02CB130E080919600E82FF0E0BB
:10122000EE0FFF1FE855FF4F318320838F5F8093C0
:101230009600803410F010929600FF91EF919F91EC
:101240008F913F912F910F900FBE0F901F90189587
:101250008AB1869590E02CB130E080FFDDCF31601F
:10126000DBCF1F920F920FB60F9211242F933F9353
:101270004F935F936F937F938F939F93AF93BF939E
:10128000EF93FF93E091A400F091A500309709F04F
:101290000995FF91EF91BF91AF919F918F917F91B0
:1012A0006F915F914F913F912F910F900FBE0F90D3
:1012B0001F9018951F920F920FB60F9211242F9323
:1012C0003F934F935F936F937F938F939F93AF93CE
:1012D000BF93EF93FF93E091A200F091A3003097AA
:1012E00009F00995FF91EF91BF91AF919F918F9177
:1012F0007F916F915F914F913F912F910F900FBE12
:101300000F901F901895A29FB001B39FC001A39F9B
:10131000700D811D1124911DB29F700D811D11242E
:10132000911D0895A1E21A2EAA1BBB1BFD010DC041
:10133000AA1FBB1FEE1FFF1FA217B307E407F50785
:1013400020F0A21BB30BE40BF50B661F771F881F61
:10135000991F1A9469F760957095809590959B01F7
:10136000AC01BD01CF010895AEE0B0E0EAEBF9E0D9
:101370000C94850C86E08C832B893C8929833A83E5
:101380008FEF9FE78D839E83AE01495E5F4F6D892E
:101390007E89CE0101960E94D809EF81F8852B89BC
:1013A0003C89E20FF31F10822E96E2E00C94A10C10
:1013B000ABE0B0E0EEEDF9E00C94780C6C017B0151
:1013C0008A01FC0116821782838181FFDFC13AE026
:1013D000532EF6012381F70123FD859123FF81918F
:1013E0007F01811509F437C1853239F423FD9591C8
:1013F00023FF91917F01953229F4B60190E00E947C
:10140000DF0BE7CF30E0912C612C712CF0E27F16DE
:1014100040F59B32D9F058F49032D1F09332F1F08C
:101420009E3291F576FC17C1689476F806C09D321D
:1014300091F09033C1F4689470F8F70123FD959111
:1014400023FF91917F019111E1CF28C0689471F839
:10145000689472F8F2CF689473F8EFCF689474F8D8
:10146000ECCF77FC1BC080ED890F8A30C8F676FE82
:1014700005C0959C800D1124982EDFCF659C800DB2
:101480001124682E7F2AD9CF9C3619F4689477F8F6
:10149000D4CF9C3409F445C0983679F2892F8F7DDA
:1014A0008554833008F43FC0933609F461C0933704
:1014B00009F46BC0933509F477C0943619F0993666
:1014C00009F0A4C0F80177FE9AC0619171918191F1
:1014D00091918F01272D2F76822E97FF04C00E94B5
:1014E0006D0C689487F82AE030E05E014FEFA41A93
:1014F000B40AA5010E940F0C782E7A1886FECFC080
:10150000882D8E7F791408F0C9C084FE1DC182FC2D
:1015100011C12EEE8222B92C882D867809F4CBC019
:101520000EC131E08ACF311501F1085F1F4F8FE303
:10153000898321E0822E912C5E012FEFA21AB20A3C
:10154000E89477F873FC03C086149104F0F18114D9
:10155000910409F041C0611409F43BCFB60180E267
:1015600090E00E94DF0B6A94F6CF0C5F1F4FDFCF35
:10157000F801808189830E5F1F4F91E0892E912CA5
:101580005E01FFEFAF1ABF0ADBCFF801A190B19067
:101590008F01692D70E076FC02C06FEF7FEFC5010F
:1015A0000E94D40B4C01CCCFF801A190B1908F01D7
:1015B000692D70E076FC02C06FEF7FEFC5010E94DD
:1015C000C90B4C01689477F8BDCFB60180E290E07A
:1015D0000E94DF0B6A94B8CFF50177FC859177FE06
:1015E00081915F01B60190E00E94DF0B81E0611004
:1015F00001C080E0681AF1E08F1A9108A8CF6191CC
:101600007191872F880F880B982F63CF9537C9F476
:10161000872CE89484F82AE030E0F80187FE39C08E
:1016200061917191819191918F015E01FFEFAF1AEC
:10163000BF0AA5010E940F0C782E7A18E89487F84B
:101640005DCF872D897F882E903799F058F4983593
:10165000A9F09F36D9F0F601868197812B96EFE0AD
:101660000C94940C9837B9F774FC05C020E130E075
:10167000D4CF689484F8689482F8F8CF74FE03C0DD
:10168000E72DE6608E2E20E132E0C7CF28E030E083
:10169000C4CF6191719180E090E0C6CF882EB72CC5
:1016A00084FE3ACFFE01E70DF11D8081803309F001
:1016B00044C049EE842283FC0EC080FE51C0972CAA
:1016C000B61418F4960C9B18B62C862D8B196B1437
:1016D00008F480E0B80EB61408F044C06B1884FE1D
:1016E00043C0B60180E390E00E94DF0B82FE09C098
:1016F00088E590E081FC02C088E790E0B6010E9496
:10170000DF0B7914E0F15E018FEFA81AB80A7A9422
:1017100082E0882E912C8C0E9D1E870C911CF4016A
:1017200082914F01B60190E00E94DF0B8A149B0466
:10173000B1F711CFB92C882EB5CF82FC02C0B3947B
:10174000BACFB394B394B7CFB92C882EE5CEB601F7
:1017500080E290E00E94DF0BA394A614C0F3B5CF03
:10176000AB2CFBCF612CBBCF882D867851F280E269
:1017700081FC8BE287FC8DE2B60190E0C0CFB60120
:1017800080E390E00E94DF0B9A94BBCF8FEF9FEF36
:1017900065CFFC010590615070400110D8F780952D
:1017A00090958E0F9F1F0895FC016150704001902D
:1017B0000110D8F7809590958E0F9F1F08950F9375
:1017C0001F93CF93DF93182F092FEB018B8181FD9E
:1017D00009C00FEF1FEF812F902FDF91CF911F9145
:1017E0000F91089582FF14C02E813F818C819D81CD
:1017F000281739073CF4E881F981CF0101968883E5
:10180000998310838E819F8101968E839F83E3CF7E
:10181000E885F985812F0995892BA1F3DACFFA01A3
:10182000AA27283051F1203181F1E8946F936E7F1F
:101830006E5F7F4F8F4F9F4FAF4FB1E03ED0B4E010
:101840003CD0670F781F891F9A1FA11D680F791F51
:101850008A1F911DA11D6A0F711D811D911DA11D62
:1018600020D009F468943F912AE0269F1124301972
:10187000305D3193DEF6CF010895462F4770405D0D
:101880004193B3E00FD0C9F7F6CF462F4F70405DBC
:101890004A3318F0495D31FD4052419302D0A9F717
:1018A000EACFB4E0A6959795879577956795BA9511
:1018B000C9F700976105710508959B01AC010A2ED7
:1018C00006945795479537952795BA95C9F7620FAE
:1018D000731F841F951FA01D089590958095709586
:1018E00061957F4F8F4F9F4F08952F923F924F9258
:1018F0005F926F927F928F929F92AF92BF92CF92A0
:10190000DF92EF92FF920F931F93CF93DF93CDB7A8
:10191000DEB7CA1BDB0B0FB6F894DEBF0FBECDBF20
:1019200009942A88398848885F846E847D848C84F1
:101930009B84AA84B984C884DF80EE80FD800C81FA
:101940001B81AA81B981CE0FD11D0FB6F894DEBFDD
:0C1950000FBECDBFED010895F894FFCF4D
:10195C0031323341343536423738394345305844C7
:10196C00000102030202020204050607020202023F
:0A197C000200000132256C75000026
:00000001FF
